{
  "address": "0x99eCe3dc3C3c935250Cc8dF72366AE51FEb4E45d",
  "abi": [
    {
      "inputs": [],
      "stateMutability": "nonpayable",
      "type": "constructor"
    },
    {
      "anonymous": false,
      "inputs": [
        {
          "indexed": false,
          "internalType": "uint256",
          "name": "bookingId",
          "type": "uint256"
        }
      ],
      "name": "BookingConfirmed",
      "type": "event"
    },
    {
      "anonymous": false,
      "inputs": [
        {
          "indexed": false,
          "internalType": "uint256",
          "name": "bookingId",
          "type": "uint256"
        },
        {
          "indexed": false,
          "internalType": "address",
          "name": "user",
          "type": "address"
        },
        {
          "indexed": false,
          "internalType": "uint256",
          "name": "serviceId",
          "type": "uint256"
        },
        {
          "indexed": false,
          "internalType": "uint256",
          "name": "bookingTime",
          "type": "uint256"
        },
        {
          "indexed": false,
          "internalType": "uint256",
          "name": "startTime",
          "type": "uint256"
        },
        {
          "indexed": false,
          "internalType": "uint256",
          "name": "endTime",
          "type": "uint256"
        },
        {
          "indexed": false,
          "internalType": "uint256",
          "name": "price",
          "type": "uint256"
        }
      ],
      "name": "BookingCreated",
      "type": "event"
    },
    {
      "anonymous": false,
      "inputs": [
        {
          "indexed": false,
          "internalType": "uint256",
          "name": "bookingId",
          "type": "uint256"
        }
      ],
      "name": "BookingPaid",
      "type": "event"
    },
    {
      "anonymous": false,
      "inputs": [
        {
          "indexed": false,
          "internalType": "uint256",
          "name": "serviceId",
          "type": "uint256"
        }
      ],
      "name": "ServiceCanceled",
      "type": "event"
    },
    {
      "anonymous": false,
      "inputs": [
        {
          "indexed": false,
          "internalType": "uint256",
          "name": "serviceId",
          "type": "uint256"
        },
        {
          "indexed": false,
          "internalType": "address",
          "name": "serviceProvider",
          "type": "address"
        },
        {
          "indexed": false,
          "internalType": "string",
          "name": "serviceName",
          "type": "string"
        },
        {
          "indexed": false,
          "internalType": "uint256",
          "name": "price",
          "type": "uint256"
        },
        {
          "indexed": false,
          "internalType": "string",
          "name": "departureLocation",
          "type": "string"
        },
        {
          "indexed": false,
          "internalType": "string",
          "name": "destination",
          "type": "string"
        },
        {
          "indexed": false,
          "internalType": "uint256",
          "name": "availableSeats",
          "type": "uint256"
        },
        {
          "indexed": false,
          "internalType": "uint256",
          "name": "departureTime",
          "type": "uint256"
        }
      ],
      "name": "ServiceCreated",
      "type": "event"
    },
    {
      "inputs": [
        {
          "internalType": "address",
          "name": "_schoolAddress",
          "type": "address"
        }
      ],
      "name": "addSchool",
      "outputs": [],
      "stateMutability": "nonpayable",
      "type": "function"
    },
    {
      "inputs": [
        {
          "internalType": "uint256",
          "name": "_serviceId",
          "type": "uint256"
        },
        {
          "internalType": "uint256",
          "name": "_startTime",
          "type": "uint256"
        },
        {
          "internalType": "uint256",
          "name": "_endTime",
          "type": "uint256"
        },
        {
          "internalType": "uint256",
          "name": "_price",
          "type": "uint256"
        }
      ],
      "name": "bookService",
      "outputs": [],
      "stateMutability": "nonpayable",
      "type": "function"
    },
    {
      "inputs": [],
      "name": "bookingCount",
      "outputs": [
        {
          "internalType": "uint256",
          "name": "",
          "type": "uint256"
        }
      ],
      "stateMutability": "view",
      "type": "function"
    },
    {
      "inputs": [
        {
          "internalType": "uint256",
          "name": "",
          "type": "uint256"
        }
      ],
      "name": "bookings",
      "outputs": [
        {
          "internalType": "address",
          "name": "user",
          "type": "address"
        },
        {
          "internalType": "uint256",
          "name": "serviceId",
          "type": "uint256"
        },
        {
          "internalType": "uint256",
          "name": "bookingTime",
          "type": "uint256"
        },
        {
          "internalType": "uint256",
          "name": "startTime",
          "type": "uint256"
        },
        {
          "internalType": "uint256",
          "name": "endTime",
          "type": "uint256"
        },
        {
          "internalType": "uint256",
          "name": "price",
          "type": "uint256"
        },
        {
          "internalType": "bool",
          "name": "confirmed",
          "type": "bool"
        },
        {
          "internalType": "bool",
          "name": "paid",
          "type": "bool"
        },
        {
          "internalType": "bool",
          "name": "paymentReleased",
          "type": "bool"
        }
      ],
      "stateMutability": "view",
      "type": "function"
    },
    {
      "inputs": [
        {
          "internalType": "uint256",
          "name": "_serviceId",
          "type": "uint256"
        }
      ],
      "name": "cancelService",
      "outputs": [],
      "stateMutability": "nonpayable",
      "type": "function"
    },
    {
      "inputs": [
        {
          "internalType": "uint256",
          "name": "_bookingId",
          "type": "uint256"
        }
      ],
      "name": "confirmBooking",
      "outputs": [],
      "stateMutability": "nonpayable",
      "type": "function"
    },
    {
      "inputs": [
        {
          "internalType": "string",
          "name": "_serviceName",
          "type": "string"
        },
        {
          "internalType": "uint256",
          "name": "_price",
          "type": "uint256"
        },
        {
          "internalType": "string",
          "name": "_departureLocation",
          "type": "string"
        },
        {
          "internalType": "string",
          "name": "_destination",
          "type": "string"
        },
        {
          "internalType": "uint256",
          "name": "_availableSeats",
          "type": "uint256"
        },
        {
          "internalType": "uint256",
          "name": "_departureTime",
          "type": "uint256"
        }
      ],
      "name": "createService",
      "outputs": [],
      "stateMutability": "nonpayable",
      "type": "function"
    },
    {
      "inputs": [
        {
          "internalType": "uint256",
          "name": "_serviceId",
          "type": "uint256"
        }
      ],
      "name": "finishService",
      "outputs": [],
      "stateMutability": "nonpayable",
      "type": "function"
    },
    {
      "inputs": [
        {
          "internalType": "uint256",
          "name": "_bookingId",
          "type": "uint256"
        }
      ],
      "name": "getBooking",
      "outputs": [
        {
          "components": [
            {
              "internalType": "address",
              "name": "user",
              "type": "address"
            },
            {
              "internalType": "uint256",
              "name": "serviceId",
              "type": "uint256"
            },
            {
              "internalType": "uint256",
              "name": "bookingTime",
              "type": "uint256"
            },
            {
              "internalType": "uint256",
              "name": "startTime",
              "type": "uint256"
            },
            {
              "internalType": "uint256",
              "name": "endTime",
              "type": "uint256"
            },
            {
              "internalType": "uint256",
              "name": "price",
              "type": "uint256"
            },
            {
              "internalType": "bool",
              "name": "confirmed",
              "type": "bool"
            },
            {
              "internalType": "bool",
              "name": "paid",
              "type": "bool"
            },
            {
              "internalType": "bool",
              "name": "paymentReleased",
              "type": "bool"
            }
          ],
          "internalType": "struct BookingService.Booking",
          "name": "",
          "type": "tuple"
        }
      ],
      "stateMutability": "view",
      "type": "function"
    },
    {
      "inputs": [
        {
          "internalType": "uint256",
          "name": "_serviceId",
          "type": "uint256"
        }
      ],
      "name": "getService",
      "outputs": [
        {
          "components": [
            {
              "internalType": "uint256",
              "name": "serviceId",
              "type": "uint256"
            },
            {
              "internalType": "address",
              "name": "serviceProvider",
              "type": "address"
            },
            {
              "internalType": "string",
              "name": "serviceName",
              "type": "string"
            },
            {
              "internalType": "uint256",
              "name": "price",
              "type": "uint256"
            },
            {
              "internalType": "string",
              "name": "departureLocation",
              "type": "string"
            },
            {
              "internalType": "string",
              "name": "destination",
              "type": "string"
            },
            {
              "internalType": "uint256",
              "name": "availableSeats",
              "type": "uint256"
            },
            {
              "internalType": "uint256",
              "name": "departureTime",
              "type": "uint256"
            },
            {
              "internalType": "bool",
              "name": "isActive",
              "type": "bool"
            },
            {
              "internalType": "bool",
              "name": "isFinished",
              "type": "bool"
            },
            {
              "internalType": "bool",
              "name": "isValidated",
              "type": "bool"
            },
            {
              "internalType": "bool",
              "name": "isPaid",
              "type": "bool"
            }
          ],
          "internalType": "struct BookingService.Service",
          "name": "",
          "type": "tuple"
        }
      ],
      "stateMutability": "view",
      "type": "function"
    },
    {
      "inputs": [
        {
          "internalType": "address",
          "name": "_schoolAddress",
          "type": "address"
        }
      ],
      "name": "isSchoolRegistered",
      "outputs": [
        {
          "internalType": "bool",
          "name": "",
          "type": "bool"
        }
      ],
      "stateMutability": "view",
      "type": "function"
    },
    {
      "inputs": [
        {
          "internalType": "uint256",
          "name": "_bookingId",
          "type": "uint256"
        }
      ],
      "name": "markBookingAsPaid",
      "outputs": [],
      "stateMutability": "nonpayable",
      "type": "function"
    },
    {
      "inputs": [],
      "name": "owner",
      "outputs": [
        {
          "internalType": "address",
          "name": "",
          "type": "address"
        }
      ],
      "stateMutability": "view",
      "type": "function"
    },
    {
      "inputs": [],
      "name": "schoolCount",
      "outputs": [
        {
          "internalType": "uint256",
          "name": "",
          "type": "uint256"
        }
      ],
      "stateMutability": "view",
      "type": "function"
    },
    {
      "inputs": [
        {
          "internalType": "uint256",
          "name": "",
          "type": "uint256"
        }
      ],
      "name": "schools",
      "outputs": [
        {
          "internalType": "address",
          "name": "",
          "type": "address"
        }
      ],
      "stateMutability": "view",
      "type": "function"
    },
    {
      "inputs": [],
      "name": "serviceCount",
      "outputs": [
        {
          "internalType": "uint256",
          "name": "",
          "type": "uint256"
        }
      ],
      "stateMutability": "view",
      "type": "function"
    },
    {
      "inputs": [
        {
          "internalType": "uint256",
          "name": "",
          "type": "uint256"
        }
      ],
      "name": "services",
      "outputs": [
        {
          "internalType": "uint256",
          "name": "serviceId",
          "type": "uint256"
        },
        {
          "internalType": "address",
          "name": "serviceProvider",
          "type": "address"
        },
        {
          "internalType": "string",
          "name": "serviceName",
          "type": "string"
        },
        {
          "internalType": "uint256",
          "name": "price",
          "type": "uint256"
        },
        {
          "internalType": "string",
          "name": "departureLocation",
          "type": "string"
        },
        {
          "internalType": "string",
          "name": "destination",
          "type": "string"
        },
        {
          "internalType": "uint256",
          "name": "availableSeats",
          "type": "uint256"
        },
        {
          "internalType": "uint256",
          "name": "departureTime",
          "type": "uint256"
        },
        {
          "internalType": "bool",
          "name": "isActive",
          "type": "bool"
        },
        {
          "internalType": "bool",
          "name": "isFinished",
          "type": "bool"
        },
        {
          "internalType": "bool",
          "name": "isValidated",
          "type": "bool"
        },
        {
          "internalType": "bool",
          "name": "isPaid",
          "type": "bool"
        }
      ],
      "stateMutability": "view",
      "type": "function"
    },
    {
      "inputs": [
        {
          "internalType": "uint256",
          "name": "_serviceId",
          "type": "uint256"
        }
      ],
      "name": "validateService",
      "outputs": [],
      "stateMutability": "nonpayable",
      "type": "function"
    }
  ],
  "transactionHash": "0xfbe2b707fca86444039cb687b44d7999d8c66bda978b0ea6ea1f06225dcf8b28",
  "args": [],
  "numDeployments": 1,
  "solcInputHash": "a5a80324a48395578c9f69fcde4f1e91",
  "bytecode": "0x608060405234801561001057600080fd5b50600080819055506000600181905550600060028190555033600560006101000a81548173ffffffffffffffffffffffffffffffffffffffff021916908373ffffffffffffffffffffffffffffffffffffffff160217905550612fe7806100786000396000f3fe608060405234801561001057600080fd5b50600436106101165760003560e01c80636a5c841a116100a257806372b8b4041161007157806372b8b404146102d1578063771f529b146102ed5780638da5cb5b1461031d578063c22c4f431461033b578063ef0e239b1461037657610116565b80636a5c841a146102375780636d759172146102675780636e82fc9e14610285578063719c0d04146102a157610116565b806328d88890116100e957806328d88890146101a957806338d95c94146101c7578063400107b3146101e357806343700e87146101ff57806354056b691461021b57610116565b806301ee8cf01461011b5780630623752614610137578063148031a1146101555780631dab301e14610171575b600080fd5b61013560048036038101906101309190611cff565b6103a6565b005b61013f610636565b60405161014c9190611def565b60405180910390f35b61016f600480360381019061016a9190611e0a565b61063c565b005b61018b60048036038101906101869190611e0a565b6107f1565b6040516101a099989796959493929190611e93565b60405180910390f35b6101b1610886565b6040516101be9190611def565b60405180910390f35b6101e160048036038101906101dc9190611f20565b61088c565b005b6101fd60048036038101906101f89190611e0a565b610ae9565b005b61021960048036038101906102149190611fb3565b610c0b565b005b61023560048036038101906102309190611e0a565b610d0a565b005b610251600480360381019061024c9190611e0a565b610ed6565b60405161025e91906120c4565b60405180910390f35b61026f611028565b60405161027c9190611def565b60405180910390f35b61029f600480360381019061029a9190611e0a565b61102e565b005b6102bb60048036038101906102b69190611e0a565b611247565b6040516102c891906120e0565b60405180910390f35b6102eb60048036038101906102e69190611e0a565b61127a565b005b61030760048036038101906103029190611fb3565b61145e565b60405161031491906120fb565b60405180910390f35b6103256114fd565b60405161033291906120e0565b60405180910390f35b61035560048036038101906103509190611e0a565b611523565b60405161036d9c9b9a99989796959493929190612195565b60405180910390f35b610390600480360381019061038b9190611e0a565b61176f565b60405161039d91906123c0565b60405180910390f35b6000808154809291906103b890612411565b919050555060008211610400576040517f08c379a00000000000000000000000000000000000000000000000000000000081526004016103f7906124cb565b60405180910390fd5b428111610442576040517f08c379a000000000000000000000000000000000000000000000000000000000815260040161043990612537565b60405180910390fd5b6000851015610486576040517f08c379a000000000000000000000000000000000000000000000000000000000815260040161047d906125a3565b60405180910390fd5b600060066000805481526020019081526020016000209050338160010160006101000a81548173ffffffffffffffffffffffffffffffffffffffff021916908373ffffffffffffffffffffffffffffffffffffffff160217905550848160040190816104f291906127cf565b508381600501908161050491906127cf565b5082816006018190555081816007018190555085816003018190555060018160080160006101000a81548160ff02191690831515021790555060008160080160016101000a81548160ff02191690831515021790555060008160080160026101000a81548160ff02191690831515021790555060008160080160036101000a81548160ff0219169083151502179055506040518060400160405280600781526020017f636172706f6f6c000000000000000000000000000000000000000000000000008152508160020190816105da91906127cf565b5060005481600001819055507fac1a91e9a7e931288489f7e97bbc0decbef22ad7fcf57ddb2b801b8aa0eb1e45600054338989898989896040516106259897969594939291906128a1565b60405180910390a150505050505050565b60005481565b600054811115610681576040517f08c379a000000000000000000000000000000000000000000000000000000000815260040161067890612980565b60405180910390fd5b3373ffffffffffffffffffffffffffffffffffffffff166006600083815260200190815260200160002060010160009054906101000a900473ffffffffffffffffffffffffffffffffffffffff1673ffffffffffffffffffffffffffffffffffffffff1614610725576040517f08c379a000000000000000000000000000000000000000000000000000000000815260040161071c906129ec565b60405180910390fd5b6006600082815260200190815260200160002060080160009054906101000a900460ff16610788576040517f08c379a000000000000000000000000000000000000000000000000000000000815260040161077f90612a58565b60405180910390fd5b60006006600083815260200190815260200160002060080160006101000a81548160ff0219169083151502179055507f2558489cf00df51bd5b578b012c0749f86ec6716a754561c6c342c261facea3a816040516107e69190611def565b60405180910390a150565b60036020528060005260406000206000915090508060000160009054906101000a900473ffffffffffffffffffffffffffffffffffffffff16908060010154908060020154908060030154908060040154908060050154908060060160009054906101000a900460ff16908060060160019054906101000a900460ff16908060060160029054906101000a900460ff16905089565b60025481565b60008411801561089e57506000548411155b6108dd576040517f08c379a00000000000000000000000000000000000000000000000000000000081526004016108d490612980565b60405180910390fd5b42831161091f576040517f08c379a000000000000000000000000000000000000000000000000000000000815260040161091690612ac4565b60405180910390fd5b828211610961576040517f08c379a000000000000000000000000000000000000000000000000000000000815260040161095890612b30565b60405180910390fd5b60008110156109a5576040517f08c379a000000000000000000000000000000000000000000000000000000000815260040161099c906125a3565b60405180910390fd5b600160008154809291906109b890612411565b919050555060006003600060015481526020019081526020016000209050338160000160006101000a81548173ffffffffffffffffffffffffffffffffffffffff021916908373ffffffffffffffffffffffffffffffffffffffff16021790555084816001018190555042816002018190555083816003018190555082816004018190555081816005018190555060008160060160006101000a81548160ff02191690831515021790555060008160060160016101000a81548160ff02191690831515021790555060008160060160026101000a81548160ff0219169083151502179055507f9b22dffe72e6936bfb46533f652ffb6396b68e7c8ed672eaa98952ccf5fdfc9f600154338742888888604051610ada9796959493929190612b50565b60405180910390a15050505050565b600054811115610b2e576040517f08c379a0000000000000000000000000000000000000000000000000000000008152600401610b2590612980565b60405180910390fd5b610b373361145e565b610b76576040517f08c379a0000000000000000000000000000000000000000000000000000000008152600401610b6d90612c0b565b60405180910390fd5b6006600082815260200190815260200160002060080160019054906101000a900460ff16610bd9576040517f08c379a0000000000000000000000000000000000000000000000000000000008152600401610bd090612c77565b60405180910390fd5b60016006600083815260200190815260200160002060080160026101000a81548160ff02191690831515021790555050565b3373ffffffffffffffffffffffffffffffffffffffff16600560009054906101000a900473ffffffffffffffffffffffffffffffffffffffff1673ffffffffffffffffffffffffffffffffffffffff1614610c9b576040517f08c379a0000000000000000000000000000000000000000000000000000000008152600401610c9290612d09565b60405180910390fd5b60026000815480929190610cae90612411565b91905055508060046000600254815260200190815260200160002060006101000a81548173ffffffffffffffffffffffffffffffffffffffff021916908373ffffffffffffffffffffffffffffffffffffffff16021790555050565b600154811115610d4f576040517f08c379a0000000000000000000000000000000000000000000000000000000008152600401610d4690612d75565b60405180910390fd5b3373ffffffffffffffffffffffffffffffffffffffff16600660006003600085815260200190815260200160002060010154815260200190815260200160002060010160009054906101000a900473ffffffffffffffffffffffffffffffffffffffff1673ffffffffffffffffffffffffffffffffffffffff1614610e09576040517f08c379a0000000000000000000000000000000000000000000000000000000008152600401610e00906129ec565b60405180910390fd5b6003600082815260200190815260200160002060060160009054906101000a900460ff1615610e6d576040517f08c379a0000000000000000000000000000000000000000000000000000000008152600401610e6490612de1565b60405180910390fd5b60016003600083815260200190815260200160002060060160006101000a81548160ff0219169083151502179055507f853fc6307cc2d72d0ec45ec77f198703d63dd760dedc66cf5488bc9727d69f9c81604051610ecb9190611def565b60405180910390a150565b610ede611a88565b600154821115610f23576040517f08c379a0000000000000000000000000000000000000000000000000000000008152600401610f1a90612d75565b60405180910390fd5b600060036000848152602001908152602001600020905080604051806101200160405290816000820160009054906101000a900473ffffffffffffffffffffffffffffffffffffffff1673ffffffffffffffffffffffffffffffffffffffff1673ffffffffffffffffffffffffffffffffffffffff16815260200160018201548152602001600282015481526020016003820154815260200160048201548152602001600582015481526020016006820160009054906101000a900460ff161515151581526020016006820160019054906101000a900460ff161515151581526020016006820160029054906101000a900460ff161515151581525050915050919050565b60015481565b600154811115611073576040517f08c379a000000000000000000000000000000000000000000000000000000000815260040161106a90612d75565b60405180910390fd5b3373ffffffffffffffffffffffffffffffffffffffff166003600083815260200190815260200160002060000160009054906101000a900473ffffffffffffffffffffffffffffffffffffffff1673ffffffffffffffffffffffffffffffffffffffff1614611117576040517f08c379a000000000000000000000000000000000000000000000000000000000815260040161110e90612e4d565b60405180910390fd5b6003600082815260200190815260200160002060060160009054906101000a900460ff1661117a576040517f08c379a000000000000000000000000000000000000000000000000000000000815260040161117190612eb9565b60405180910390fd5b6003600082815260200190815260200160002060060160019054906101000a900460ff16156111de576040517f08c379a00000000000000000000000000000000000000000000000000000000081526004016111d590612f25565b60405180910390fd5b60016003600083815260200190815260200160002060060160016101000a81548160ff0219169083151502179055507fe64d394ef2312a8e0a28c6ef323b925224206c2089af600615b4aae030bea2fc8160405161123c9190611def565b60405180910390a150565b60046020528060005260406000206000915054906101000a900473ffffffffffffffffffffffffffffffffffffffff1681565b6000548111156112bf576040517f08c379a00000000000000000000000000000000000000000000000000000000081526004016112b690612980565b60405180910390fd5b3373ffffffffffffffffffffffffffffffffffffffff166006600083815260200190815260200160002060010160009054906101000a900473ffffffffffffffffffffffffffffffffffffffff1673ffffffffffffffffffffffffffffffffffffffff1614611363576040517f08c379a000000000000000000000000000000000000000000000000000000000815260040161135a906129ec565b60405180910390fd5b6006600082815260200190815260200160002060080160009054906101000a900460ff166113c6576040517f08c379a00000000000000000000000000000000000000000000000000000000081526004016113bd90612f91565b60405180910390fd5b60006006600083815260200190815260200160002060080160006101000a81548160ff02191690831515021790555060016006600083815260200190815260200160002060080160016101000a81548160ff0219169083151502179055507f2558489cf00df51bd5b578b012c0749f86ec6716a754561c6c342c261facea3a816040516114539190611def565b60405180910390a150565b600080600190505b60025481116114f2578273ffffffffffffffffffffffffffffffffffffffff166004600083815260200190815260200160002060009054906101000a900473ffffffffffffffffffffffffffffffffffffffff1673ffffffffffffffffffffffffffffffffffffffff16036114df5760019150506114f8565b80806114ea90612411565b915050611466565b50600090505b919050565b600560009054906101000a900473ffffffffffffffffffffffffffffffffffffffff1681565b60066020528060005260406000206000915090508060000154908060010160009054906101000a900473ffffffffffffffffffffffffffffffffffffffff1690806002018054611572906125f2565b80601f016020809104026020016040519081016040528092919081815260200182805461159e906125f2565b80156115eb5780601f106115c0576101008083540402835291602001916115eb565b820191906000526020600020905b8154815290600101906020018083116115ce57829003601f168201915b505050505090806003015490806004018054611606906125f2565b80601f0160208091040260200160405190810160405280929190818152602001828054611632906125f2565b801561167f5780601f106116545761010080835404028352916020019161167f565b820191906000526020600020905b81548152906001019060200180831161166257829003601f168201915b505050505090806005018054611694906125f2565b80601f01602080910402602001604051908101604052809291908181526020018280546116c0906125f2565b801561170d5780601f106116e25761010080835404028352916020019161170d565b820191906000526020600020905b8154815290600101906020018083116116f057829003601f168201915b5050505050908060060154908060070154908060080160009054906101000a900460ff16908060080160019054906101000a900460ff16908060080160029054906101000a900460ff16908060080160039054906101000a900460ff1690508c565b611777611af0565b6000548211156117bc576040517f08c379a00000000000000000000000000000000000000000000000000000000081526004016117b390612d75565b60405180910390fd5b60006006600084815260200190815260200160002090508060405180610180016040529081600082015481526020016001820160009054906101000a900473ffffffffffffffffffffffffffffffffffffffff1673ffffffffffffffffffffffffffffffffffffffff1673ffffffffffffffffffffffffffffffffffffffff168152602001600282018054611850906125f2565b80601f016020809104026020016040519081016040528092919081815260200182805461187c906125f2565b80156118c95780601f1061189e576101008083540402835291602001916118c9565b820191906000526020600020905b8154815290600101906020018083116118ac57829003601f168201915b50505050508152602001600382015481526020016004820180546118ec906125f2565b80601f0160208091040260200160405190810160405280929190818152602001828054611918906125f2565b80156119655780601f1061193a57610100808354040283529160200191611965565b820191906000526020600020905b81548152906001019060200180831161194857829003601f168201915b5050505050815260200160058201805461197e906125f2565b80601f01602080910402602001604051908101604052809291908181526020018280546119aa906125f2565b80156119f75780601f106119cc576101008083540402835291602001916119f7565b820191906000526020600020905b8154815290600101906020018083116119da57829003601f168201915b5050505050815260200160068201548152602001600782015481526020016008820160009054906101000a900460ff161515151581526020016008820160019054906101000a900460ff161515151581526020016008820160029054906101000a900460ff161515151581526020016008820160039054906101000a900460ff161515151581525050915050919050565b604051806101200160405280600073ffffffffffffffffffffffffffffffffffffffff16815260200160008152602001600081526020016000815260200160008152602001600081526020016000151581526020016000151581526020016000151581525090565b60405180610180016040528060008152602001600073ffffffffffffffffffffffffffffffffffffffff1681526020016060815260200160008152602001606081526020016060815260200160008152602001600081526020016000151581526020016000151581526020016000151581526020016000151581525090565b6000604051905090565b600080fd5b600080fd5b600080fd5b600080fd5b6000601f19601f8301169050919050565b7f4e487b7100000000000000000000000000000000000000000000000000000000600052604160045260246000fd5b611bd682611b8d565b810181811067ffffffffffffffff82111715611bf557611bf4611b9e565b5b80604052505050565b6000611c08611b6f565b9050611c148282611bcd565b919050565b600067ffffffffffffffff821115611c3457611c33611b9e565b5b611c3d82611b8d565b9050602081019050919050565b82818337600083830152505050565b6000611c6c611c6784611c19565b611bfe565b905082815260208101848484011115611c8857611c87611b88565b5b611c93848285611c4a565b509392505050565b600082601f830112611cb057611caf611b83565b5b8135611cc0848260208601611c59565b91505092915050565b6000819050919050565b611cdc81611cc9565b8114611ce757600080fd5b50565b600081359050611cf981611cd3565b92915050565b60008060008060008060c08789031215611d1c57611d1b611b79565b5b600087013567ffffffffffffffff811115611d3a57611d39611b7e565b5b611d4689828a01611c9b565b9650506020611d5789828a01611cea565b955050604087013567ffffffffffffffff811115611d7857611d77611b7e565b5b611d8489828a01611c9b565b945050606087013567ffffffffffffffff811115611da557611da4611b7e565b5b611db189828a01611c9b565b9350506080611dc289828a01611cea565b92505060a0611dd389828a01611cea565b9150509295509295509295565b611de981611cc9565b82525050565b6000602082019050611e046000830184611de0565b92915050565b600060208284031215611e2057611e1f611b79565b5b6000611e2e84828501611cea565b91505092915050565b600073ffffffffffffffffffffffffffffffffffffffff82169050919050565b6000611e6282611e37565b9050919050565b611e7281611e57565b82525050565b60008115159050919050565b611e8d81611e78565b82525050565b600061012082019050611ea9600083018c611e69565b611eb6602083018b611de0565b611ec3604083018a611de0565b611ed06060830189611de0565b611edd6080830188611de0565b611eea60a0830187611de0565b611ef760c0830186611e84565b611f0460e0830185611e84565b611f12610100830184611e84565b9a9950505050505050505050565b60008060008060808587031215611f3a57611f39611b79565b5b6000611f4887828801611cea565b9450506020611f5987828801611cea565b9350506040611f6a87828801611cea565b9250506060611f7b87828801611cea565b91505092959194509250565b611f9081611e57565b8114611f9b57600080fd5b50565b600081359050611fad81611f87565b92915050565b600060208284031215611fc957611fc8611b79565b5b6000611fd784828501611f9e565b91505092915050565b611fe981611e57565b82525050565b611ff881611cc9565b82525050565b61200781611e78565b82525050565b610120820160008201516120246000850182611fe0565b5060208201516120376020850182611fef565b50604082015161204a6040850182611fef565b50606082015161205d6060850182611fef565b5060808201516120706080850182611fef565b5060a082015161208360a0850182611fef565b5060c082015161209660c0850182611ffe565b5060e08201516120a960e0850182611ffe565b506101008201516120be610100850182611ffe565b50505050565b6000610120820190506120da600083018461200d565b92915050565b60006020820190506120f56000830184611e69565b92915050565b60006020820190506121106000830184611e84565b92915050565b600081519050919050565b600082825260208201905092915050565b60005b83811015612150578082015181840152602081019050612135565b60008484015250505050565b600061216782612116565b6121718185612121565b9350612181818560208601612132565b61218a81611b8d565b840191505092915050565b6000610180820190506121ab600083018f611de0565b6121b8602083018e611e69565b81810360408301526121ca818d61215c565b90506121d9606083018c611de0565b81810360808301526121eb818b61215c565b905081810360a08301526121ff818a61215c565b905061220e60c0830189611de0565b61221b60e0830188611de0565b612229610100830187611e84565b612237610120830186611e84565b612245610140830185611e84565b612253610160830184611e84565b9d9c50505050505050505050505050565b600082825260208201905092915050565b600061228082612116565b61228a8185612264565b935061229a818560208601612132565b6122a381611b8d565b840191505092915050565b6000610180830160008301516122c76000860182611fef565b5060208301516122da6020860182611fe0565b50604083015184820360408601526122f28282612275565b91505060608301516123076060860182611fef565b506080830151848203608086015261231f8282612275565b91505060a083015184820360a08601526123398282612275565b91505060c083015161234e60c0860182611fef565b5060e083015161236160e0860182611fef565b50610100830151612376610100860182611ffe565b5061012083015161238b610120860182611ffe565b506101408301516123a0610140860182611ffe565b506101608301516123b5610160860182611ffe565b508091505092915050565b600060208201905081810360008301526123da81846122ae565b905092915050565b7f4e487b7100000000000000000000000000000000000000000000000000000000600052601160045260246000fd5b600061241c82611cc9565b91507fffffffffffffffffffffffffffffffffffffffffffffffffffffffffffffffff820361244e5761244d6123e2565b5b600182019050919050565b7f4e756d626572206f6620617661696c61626c65207365617473206d757374206260008201527f652067726561746572207468616e203000000000000000000000000000000000602082015250565b60006124b5603083612121565b91506124c082612459565b604082019050919050565b600060208201905081810360008301526124e4816124a8565b9050919050565b7f496e76616c6964206465706172747572652074696d6500000000000000000000600082015250565b6000612521601683612121565b915061252c826124eb565b602082019050919050565b6000602082019050818103600083015261255081612514565b9050919050565b7f50726963652063616e6e6f74206265206e656761746976650000000000000000600082015250565b600061258d601883612121565b915061259882612557565b602082019050919050565b600060208201905081810360008301526125bc81612580565b9050919050565b7f4e487b7100000000000000000000000000000000000000000000000000000000600052602260045260246000fd5b6000600282049050600182168061260a57607f821691505b60208210810361261d5761261c6125c3565b5b50919050565b60008190508160005260206000209050919050565b60006020601f8301049050919050565b600082821b905092915050565b6000600883026126857fffffffffffffffffffffffffffffffffffffffffffffffffffffffffffffffff82612648565b61268f8683612648565b95508019841693508086168417925050509392505050565b6000819050919050565b60006126cc6126c76126c284611cc9565b6126a7565b611cc9565b9050919050565b6000819050919050565b6126e6836126b1565b6126fa6126f2826126d3565b848454612655565b825550505050565b600090565b61270f612702565b61271a8184846126dd565b505050565b5b8181101561273e57612733600082612707565b600181019050612720565b5050565b601f8211156127835761275481612623565b61275d84612638565b8101602085101561276c578190505b61278061277885612638565b83018261271f565b50505b505050565b600082821c905092915050565b60006127a660001984600802612788565b1980831691505092915050565b60006127bf8383612795565b9150826002028217905092915050565b6127d882612116565b67ffffffffffffffff8111156127f1576127f0611b9e565b5b6127fb82546125f2565b612806828285612742565b600060209050601f8311600181146128395760008415612827578287015190505b61283185826127b3565b865550612899565b601f19841661284786612623565b60005b8281101561286f5784890151825560018201915060208501945060208101905061284a565b8683101561288c5784890151612888601f891682612795565b8355505b6001600288020188555050505b505050505050565b6000610100820190506128b7600083018b611de0565b6128c4602083018a611e69565b81810360408301526128d6818961215c565b90506128e56060830188611de0565b81810360808301526128f7818761215c565b905081810360a083015261290b818661215c565b905061291a60c0830185611de0565b61292760e0830184611de0565b9998505050505050505050565b7f496e76616c696420736572766963652049440000000000000000000000000000600082015250565b600061296a601283612121565b915061297582612934565b602082019050919050565b600060208201905081810360008301526129998161295d565b9050919050565b7f596f7520617265206e6f742074686520736572766963652070726f7669646572600082015250565b60006129d6602083612121565b91506129e1826129a0565b602082019050919050565b60006020820190508181036000830152612a05816129c9565b9050919050565b7f5365727669636520697320616c72656164792063616e63656c65640000000000600082015250565b6000612a42601b83612121565b9150612a4d82612a0c565b602082019050919050565b60006020820190508181036000830152612a7181612a35565b9050919050565b7f496e76616c69642073746172742074696d650000000000000000000000000000600082015250565b6000612aae601283612121565b9150612ab982612a78565b602082019050919050565b60006020820190508181036000830152612add81612aa1565b9050919050565b7f496e76616c696420656e642074696d6500000000000000000000000000000000600082015250565b6000612b1a601083612121565b9150612b2582612ae4565b602082019050919050565b60006020820190508181036000830152612b4981612b0d565b9050919050565b600060e082019050612b65600083018a611de0565b612b726020830189611e69565b612b7f6040830188611de0565b612b8c6060830187611de0565b612b996080830186611de0565b612ba660a0830185611de0565b612bb360c0830184611de0565b98975050505050505050565b7f5363686f6f6c206e6f7420726567697374657265640000000000000000000000600082015250565b6000612bf5601583612121565b9150612c0082612bbf565b602082019050919050565b60006020820190508181036000830152612c2481612be8565b9050919050565b7f53657276696365206e6f74207965742066696e69736865640000000000000000600082015250565b6000612c61601883612121565b9150612c6c82612c2b565b602082019050919050565b60006020820190508181036000830152612c9081612c54565b9050919050565b7f6f6e6c79206f776e65722063616e2063616c6c20746869732066756e6374696f60008201527f6e00000000000000000000000000000000000000000000000000000000000000602082015250565b6000612cf3602183612121565b9150612cfe82612c97565b604082019050919050565b60006020820190508181036000830152612d2281612ce6565b9050919050565b7f496e76616c696420626f6f6b696e672049440000000000000000000000000000600082015250565b6000612d5f601283612121565b9150612d6a82612d29565b602082019050919050565b60006020820190508181036000830152612d8e81612d52565b9050919050565b7f426f6f6b696e6720616c726561647920636f6e6669726d656400000000000000600082015250565b6000612dcb601983612121565b9150612dd682612d95565b602082019050919050565b60006020820190508181036000830152612dfa81612dbe565b9050919050565b7f596f7520617265206e6f74207468652075736572000000000000000000000000600082015250565b6000612e37601483612121565b9150612e4282612e01565b602082019050919050565b60006020820190508181036000830152612e6681612e2a565b9050919050565b7f426f6f6b696e67206973206e6f7420636f6e6669726d65640000000000000000600082015250565b6000612ea3601883612121565b9150612eae82612e6d565b602082019050919050565b60006020820190508181036000830152612ed281612e96565b9050919050565b7f5061796d656e742068617320616c7265616479206265656e206d616465000000600082015250565b6000612f0f601d83612121565b9150612f1a82612ed9565b602082019050919050565b60006020820190508181036000830152612f3e81612f02565b9050919050565b7f53657276696365206973206e6f74206163746976650000000000000000000000600082015250565b6000612f7b601583612121565b9150612f8682612f45565b602082019050919050565b60006020820190508181036000830152612faa81612f6e565b905091905056fea264697066735822122064b2a5d42c15efd6343659b6a9a6047c3a76aea072919c1420d8d743c18ae5d864736f6c63430008140033",
  "devdoc": {
    "kind": "dev",
    "methods": {},
    "version": 1
  },
  "userdoc": {
    "kind": "user",
    "methods": {},
    "version": 1
  },
  "storageLayout": {
    "storage": [
      {
        "astId": 101,
        "contract": "contracts/BookingService.sol:BookingService",
        "label": "serviceCount",
        "offset": 0,
        "slot": "0",
        "type": "t_uint256"
      },
      {
        "astId": 103,
        "contract": "contracts/BookingService.sol:BookingService",
        "label": "bookingCount",
        "offset": 0,
        "slot": "1",
        "type": "t_uint256"
      },
      {
        "astId": 105,
        "contract": "contracts/BookingService.sol:BookingService",
        "label": "schoolCount",
        "offset": 0,
        "slot": "2",
        "type": "t_uint256"
      },
      {
        "astId": 110,
        "contract": "contracts/BookingService.sol:BookingService",
        "label": "bookings",
        "offset": 0,
        "slot": "3",
        "type": "t_mapping(t_uint256,t_struct(Booking)99_storage)"
      },
      {
        "astId": 114,
        "contract": "contracts/BookingService.sol:BookingService",
        "label": "schools",
        "offset": 0,
        "slot": "4",
        "type": "t_mapping(t_uint256,t_address)"
      },
      {
        "astId": 116,
        "contract": "contracts/BookingService.sol:BookingService",
        "label": "owner",
        "offset": 0,
        "slot": "5",
        "type": "t_address"
      },
      {
        "astId": 213,
        "contract": "contracts/BookingService.sol:BookingService",
        "label": "services",
        "offset": 0,
        "slot": "6",
        "type": "t_mapping(t_uint256,t_struct(Service)208_storage)"
      }
    ],
    "types": {
      "t_address": {
        "encoding": "inplace",
        "label": "address",
        "numberOfBytes": "20"
      },
      "t_bool": {
        "encoding": "inplace",
        "label": "bool",
        "numberOfBytes": "1"
      },
      "t_mapping(t_uint256,t_address)": {
        "encoding": "mapping",
        "key": "t_uint256",
        "label": "mapping(uint256 => address)",
        "numberOfBytes": "32",
        "value": "t_address"
      },
      "t_mapping(t_uint256,t_struct(Booking)99_storage)": {
        "encoding": "mapping",
        "key": "t_uint256",
        "label": "mapping(uint256 => struct BookingService.Booking)",
        "numberOfBytes": "32",
        "value": "t_struct(Booking)99_storage"
      },
      "t_mapping(t_uint256,t_struct(Service)208_storage)": {
        "encoding": "mapping",
        "key": "t_uint256",
        "label": "mapping(uint256 => struct BookingService.Service)",
        "numberOfBytes": "32",
        "value": "t_struct(Service)208_storage"
      },
      "t_string_storage": {
        "encoding": "bytes",
        "label": "string",
        "numberOfBytes": "32"
      },
      "t_struct(Booking)99_storage": {
        "encoding": "inplace",
        "label": "struct BookingService.Booking",
        "members": [
          {
            "astId": 82,
            "contract": "contracts/BookingService.sol:BookingService",
            "label": "user",
            "offset": 0,
            "slot": "0",
            "type": "t_address"
          },
          {
            "astId": 84,
            "contract": "contracts/BookingService.sol:BookingService",
            "label": "serviceId",
            "offset": 0,
            "slot": "1",
            "type": "t_uint256"
          },
          {
            "astId": 86,
            "contract": "contracts/BookingService.sol:BookingService",
            "label": "bookingTime",
            "offset": 0,
            "slot": "2",
            "type": "t_uint256"
          },
          {
            "astId": 88,
            "contract": "contracts/BookingService.sol:BookingService",
            "label": "startTime",
            "offset": 0,
            "slot": "3",
            "type": "t_uint256"
          },
          {
            "astId": 90,
            "contract": "contracts/BookingService.sol:BookingService",
            "label": "endTime",
            "offset": 0,
            "slot": "4",
            "type": "t_uint256"
          },
          {
            "astId": 92,
            "contract": "contracts/BookingService.sol:BookingService",
            "label": "price",
            "offset": 0,
            "slot": "5",
            "type": "t_uint256"
          },
          {
            "astId": 94,
            "contract": "contracts/BookingService.sol:BookingService",
            "label": "confirmed",
            "offset": 0,
            "slot": "6",
            "type": "t_bool"
          },
          {
            "astId": 96,
            "contract": "contracts/BookingService.sol:BookingService",
            "label": "paid",
            "offset": 1,
            "slot": "6",
            "type": "t_bool"
          },
          {
            "astId": 98,
            "contract": "contracts/BookingService.sol:BookingService",
            "label": "paymentReleased",
            "offset": 2,
            "slot": "6",
            "type": "t_bool"
          }
        ],
        "numberOfBytes": "224"
      },
      "t_struct(Service)208_storage": {
        "encoding": "inplace",
        "label": "struct BookingService.Service",
        "members": [
          {
            "astId": 185,
            "contract": "contracts/BookingService.sol:BookingService",
            "label": "serviceId",
            "offset": 0,
            "slot": "0",
            "type": "t_uint256"
          },
          {
            "astId": 187,
            "contract": "contracts/BookingService.sol:BookingService",
            "label": "serviceProvider",
            "offset": 0,
            "slot": "1",
            "type": "t_address"
          },
          {
            "astId": 189,
            "contract": "contracts/BookingService.sol:BookingService",
            "label": "serviceName",
            "offset": 0,
            "slot": "2",
            "type": "t_string_storage"
          },
          {
            "astId": 191,
            "contract": "contracts/BookingService.sol:BookingService",
            "label": "price",
            "offset": 0,
            "slot": "3",
            "type": "t_uint256"
          },
          {
            "astId": 193,
            "contract": "contracts/BookingService.sol:BookingService",
            "label": "departureLocation",
            "offset": 0,
            "slot": "4",
            "type": "t_string_storage"
          },
          {
            "astId": 195,
            "contract": "contracts/BookingService.sol:BookingService",
            "label": "destination",
            "offset": 0,
            "slot": "5",
            "type": "t_string_storage"
          },
          {
            "astId": 197,
            "contract": "contracts/BookingService.sol:BookingService",
            "label": "availableSeats",
            "offset": 0,
            "slot": "6",
            "type": "t_uint256"
          },
          {
            "astId": 199,
            "contract": "contracts/BookingService.sol:BookingService",
            "label": "departureTime",
            "offset": 0,
            "slot": "7",
            "type": "t_uint256"
          },
          {
            "astId": 201,
            "contract": "contracts/BookingService.sol:BookingService",
            "label": "isActive",
            "offset": 0,
            "slot": "8",
            "type": "t_bool"
          },
          {
            "astId": 203,
            "contract": "contracts/BookingService.sol:BookingService",
            "label": "isFinished",
            "offset": 1,
            "slot": "8",
            "type": "t_bool"
          },
          {
            "astId": 205,
            "contract": "contracts/BookingService.sol:BookingService",
            "label": "isValidated",
            "offset": 2,
            "slot": "8",
            "type": "t_bool"
          },
          {
            "astId": 207,
            "contract": "contracts/BookingService.sol:BookingService",
            "label": "isPaid",
            "offset": 3,
            "slot": "8",
            "type": "t_bool"
          }
        ],
        "numberOfBytes": "288"
      },
      "t_uint256": {
        "encoding": "inplace",
        "label": "uint256",
        "numberOfBytes": "32"
      }
    }
  }
}