{
  "address": "0x8606F93C0aa5a8B7dC3bdaA2a484525B5b74883B",
  "abi": [
    {
      "inputs": [
        {
          "internalType": "address",
          "name": "_maticTokenAddress",
          "type": "address"
        },
        {
          "internalType": "address",
          "name": "_bookingServiceAddress",
          "type": "address"
        }
      ],
      "stateMutability": "nonpayable",
      "type": "constructor"
    },
    {
      "anonymous": false,
      "inputs": [
        {
          "indexed": false,
          "internalType": "uint256",
          "name": "bookingId",
          "type": "uint256"
        },
        {
          "indexed": false,
          "internalType": "address",
          "name": "payer",
          "type": "address"
        },
        {
          "indexed": false,
          "internalType": "uint256",
          "name": "amount",
          "type": "uint256"
        }
      ],
      "name": "PaymentLocked",
      "type": "event"
    },
    {
      "anonymous": false,
      "inputs": [
        {
          "indexed": false,
          "internalType": "uint256",
          "name": "bookingId",
          "type": "uint256"
        },
        {
          "indexed": false,
          "internalType": "address",
          "name": "payer",
          "type": "address"
        },
        {
          "indexed": false,
          "internalType": "uint256",
          "name": "amount",
          "type": "uint256"
        }
      ],
      "name": "PaymentReleased",
      "type": "event"
    },
    {
      "inputs": [],
      "name": "bookingService",
      "outputs": [
        {
          "internalType": "contract BookingService",
          "name": "",
          "type": "address"
        }
      ],
      "stateMutability": "view",
      "type": "function"
    },
    {
      "inputs": [
        {
          "internalType": "uint256",
          "name": "_bookingId",
          "type": "uint256"
        }
      ],
      "name": "finishPayment",
      "outputs": [],
      "stateMutability": "nonpayable",
      "type": "function"
    },
    {
      "inputs": [],
      "name": "getBalance",
      "outputs": [
        {
          "internalType": "uint256",
          "name": "",
          "type": "uint256"
        }
      ],
      "stateMutability": "view",
      "type": "function"
    },
    {
      "inputs": [
        {
          "internalType": "uint256",
          "name": "_bookingId",
          "type": "uint256"
        }
      ],
      "name": "lockPayment",
      "outputs": [],
      "stateMutability": "nonpayable",
      "type": "function"
    },
    {
      "inputs": [],
      "name": "maticToken",
      "outputs": [
        {
          "internalType": "contract IERC20",
          "name": "",
          "type": "address"
        }
      ],
      "stateMutability": "view",
      "type": "function"
    },
    {
      "inputs": [],
      "name": "owner",
      "outputs": [
        {
          "internalType": "address",
          "name": "",
          "type": "address"
        }
      ],
      "stateMutability": "view",
      "type": "function"
    },
    {
      "inputs": [
        {
          "internalType": "uint256",
          "name": "_amount",
          "type": "uint256"
        }
      ],
      "name": "withdrawFunds",
      "outputs": [],
      "stateMutability": "nonpayable",
      "type": "function"
    }
  ],
  "transactionHash": "0xa21f8de535e7573bbf4fa0f71a67228341ce9f8b19a7de0298da42e8d32c5f70",
  "args": [
    "0x0000000000000000000000000000000000001010",
    "0x99eCe3dc3C3c935250Cc8dF72366AE51FEb4E45d"
  ],
  "numDeployments": 1,
  "solcInputHash": "a5a80324a48395578c9f69fcde4f1e91",
  "bytecode": "0x60806040523480156200001157600080fd5b5060405162001df438038062001df483398181016040528101906200003791906200016b565b336000806101000a81548173ffffffffffffffffffffffffffffffffffffffff021916908373ffffffffffffffffffffffffffffffffffffffff16021790555081600160006101000a81548173ffffffffffffffffffffffffffffffffffffffff021916908373ffffffffffffffffffffffffffffffffffffffff16021790555080600260006101000a81548173ffffffffffffffffffffffffffffffffffffffff021916908373ffffffffffffffffffffffffffffffffffffffff1602179055505050620001b2565b600080fd5b600073ffffffffffffffffffffffffffffffffffffffff82169050919050565b6000620001338262000106565b9050919050565b620001458162000126565b81146200015157600080fd5b50565b60008151905062000165816200013a565b92915050565b6000806040838503121562000185576200018462000101565b5b6000620001958582860162000154565b9250506020620001a88582860162000154565b9150509250929050565b611c3280620001c26000396000f3fe608060405234801561001057600080fd5b506004361061007d5760003560e01c80635dcc0a871161005b5780635dcc0a87146100d85780637de5047d146100f65780638da5cb5b14610112578063dc354296146101305761007d565b806312065fe014610082578063155dd5ee146100a05780633b200cb8146100bc575b600080fd5b61008a61014e565b604051610097919061114f565b60405180910390f35b6100ba60048036038101906100b591906111aa565b6101f1565b005b6100d660048036038101906100d191906111aa565b61045f565b005b6100e0610980565b6040516100ed9190611256565b60405180910390f35b610110600480360381019061010b91906111aa565b6109a6565b005b61011a6110ec565b6040516101279190611292565b60405180910390f35b610138611110565b60405161014591906112ce565b60405180910390f35b6000600160009054906101000a900473ffffffffffffffffffffffffffffffffffffffff1673ffffffffffffffffffffffffffffffffffffffff166370a08231306040518263ffffffff1660e01b81526004016101ab9190611292565b602060405180830381865afa1580156101c8573d6000803e3d6000fd5b505050506040513d601f19601f820116820180604052508101906101ec91906112fe565b905090565b60008054906101000a900473ffffffffffffffffffffffffffffffffffffffff1673ffffffffffffffffffffffffffffffffffffffff163373ffffffffffffffffffffffffffffffffffffffff161461027f576040517f08c379a000000000000000000000000000000000000000000000000000000000815260040161027690611388565b60405180910390fd5b600160009054906101000a900473ffffffffffffffffffffffffffffffffffffffff1673ffffffffffffffffffffffffffffffffffffffff166370a08231306040518263ffffffff1660e01b81526004016102da9190611292565b602060405180830381865afa1580156102f7573d6000803e3d6000fd5b505050506040513d601f19601f8201168201806040525081019061031b91906112fe565b81111561035d576040517f08c379a0000000000000000000000000000000000000000000000000000000008152600401610354906113f4565b60405180910390fd5b600160009054906101000a900473ffffffffffffffffffffffffffffffffffffffff1673ffffffffffffffffffffffffffffffffffffffff1663a9059cbb60008054906101000a900473ffffffffffffffffffffffffffffffffffffffff16836040518363ffffffff1660e01b81526004016103da929190611414565b6020604051808303816000875af11580156103f9573d6000803e3d6000fd5b505050506040513d601f19601f8201168201806040525081019061041d9190611475565b61045c576040517f08c379a0000000000000000000000000000000000000000000000000000000008152600401610453906114ee565b60405180910390fd5b50565b3373ffffffffffffffffffffffffffffffffffffffff16600260009054906101000a900473ffffffffffffffffffffffffffffffffffffffff1673ffffffffffffffffffffffffffffffffffffffff16636a5c841a836040518263ffffffff1660e01b81526004016104d1919061114f565b61012060405180830381865afa1580156104ef573d6000803e3d6000fd5b505050506040513d601f19601f8201168201806040525081019061051391906116b0565b6000015173ffffffffffffffffffffffffffffffffffffffff161461056d576040517f08c379a00000000000000000000000000000000000000000000000000000000081526004016105649061172a565b60405180910390fd5b600260009054906101000a900473ffffffffffffffffffffffffffffffffffffffff1673ffffffffffffffffffffffffffffffffffffffff16636a5c841a826040518263ffffffff1660e01b81526004016105c8919061114f565b61012060405180830381865afa1580156105e6573d6000803e3d6000fd5b505050506040513d601f19601f8201168201806040525081019061060a91906116b0565b60c0015161064d576040517f08c379a000000000000000000000000000000000000000000000000000000000815260040161064490611796565b60405180910390fd5b600260009054906101000a900473ffffffffffffffffffffffffffffffffffffffff1673ffffffffffffffffffffffffffffffffffffffff16636a5c841a826040518263ffffffff1660e01b81526004016106a8919061114f565b61012060405180830381865afa1580156106c6573d6000803e3d6000fd5b505050506040513d601f19601f820116820180604052508101906106ea91906116b0565b60e001511561072e576040517f08c379a000000000000000000000000000000000000000000000000000000000815260040161072590611802565b60405180910390fd5b6000600260009054906101000a900473ffffffffffffffffffffffffffffffffffffffff1673ffffffffffffffffffffffffffffffffffffffff16636a5c841a836040518263ffffffff1660e01b815260040161078b919061114f565b61012060405180830381865afa1580156107a9573d6000803e3d6000fd5b505050506040513d601f19601f820116820180604052508101906107cd91906116b0565b60a001519050600160009054906101000a900473ffffffffffffffffffffffffffffffffffffffff1673ffffffffffffffffffffffffffffffffffffffff166323b872dd3330846040518463ffffffff1660e01b815260040161083293929190611822565b6020604051808303816000875af1158015610851573d6000803e3d6000fd5b505050506040513d601f19601f820116820180604052508101906108759190611475565b6108b4576040517f08c379a00000000000000000000000000000000000000000000000000000000081526004016108ab906114ee565b60405180910390fd5b600260009054906101000a900473ffffffffffffffffffffffffffffffffffffffff1673ffffffffffffffffffffffffffffffffffffffff16636e82fc9e836040518263ffffffff1660e01b815260040161090f919061114f565b600060405180830381600087803b15801561092957600080fd5b505af115801561093d573d6000803e3d6000fd5b505050507fb97ace081249682f488fb46faf2f3f117d71e3e25b00348ceaa2c8a35024768682338360405161097493929190611859565b60405180910390a15050565b600260009054906101000a900473ffffffffffffffffffffffffffffffffffffffff1681565b3373ffffffffffffffffffffffffffffffffffffffff16600260009054906101000a900473ffffffffffffffffffffffffffffffffffffffff1673ffffffffffffffffffffffffffffffffffffffff16636a5c841a836040518263ffffffff1660e01b8152600401610a18919061114f565b61012060405180830381865afa158015610a36573d6000803e3d6000fd5b505050506040513d601f19601f82011682018060405250810190610a5a91906116b0565b6000015173ffffffffffffffffffffffffffffffffffffffff1614610ab4576040517f08c379a0000000000000000000000000000000000000000000000000000000008152600401610aab9061172a565b60405180910390fd5b600260009054906101000a900473ffffffffffffffffffffffffffffffffffffffff1673ffffffffffffffffffffffffffffffffffffffff16636a5c841a826040518263ffffffff1660e01b8152600401610b0f919061114f565b61012060405180830381865afa158015610b2d573d6000803e3d6000fd5b505050506040513d601f19601f82011682018060405250810190610b5191906116b0565b60c00151610b94576040517f08c379a0000000000000000000000000000000000000000000000000000000008152600401610b8b90611796565b60405180910390fd5b600260009054906101000a900473ffffffffffffffffffffffffffffffffffffffff1673ffffffffffffffffffffffffffffffffffffffff16636a5c841a826040518263ffffffff1660e01b8152600401610bef919061114f565b61012060405180830381865afa158015610c0d573d6000803e3d6000fd5b505050506040513d601f19601f82011682018060405250810190610c3191906116b0565b60e00151610c74576040517f08c379a0000000000000000000000000000000000000000000000000000000008152600401610c6b906118dc565b60405180910390fd5b600260009054906101000a900473ffffffffffffffffffffffffffffffffffffffff1673ffffffffffffffffffffffffffffffffffffffff16636a5c841a826040518263ffffffff1660e01b8152600401610ccf919061114f565b61012060405180830381865afa158015610ced573d6000803e3d6000fd5b505050506040513d601f19601f82011682018060405250810190610d1191906116b0565b610100015115610d56576040517f08c379a0000000000000000000000000000000000000000000000000000000008152600401610d4d90611948565b60405180910390fd5b6000600260009054906101000a900473ffffffffffffffffffffffffffffffffffffffff1673ffffffffffffffffffffffffffffffffffffffff16636a5c841a836040518263ffffffff1660e01b8152600401610db3919061114f565b61012060405180830381865afa158015610dd1573d6000803e3d6000fd5b505050506040513d601f19601f82011682018060405250810190610df591906116b0565b60a001519050600160009054906101000a900473ffffffffffffffffffffffffffffffffffffffff1673ffffffffffffffffffffffffffffffffffffffff166323b872dd30600260009054906101000a900473ffffffffffffffffffffffffffffffffffffffff1673ffffffffffffffffffffffffffffffffffffffff1663ef0e239b600260009054906101000a900473ffffffffffffffffffffffffffffffffffffffff1673ffffffffffffffffffffffffffffffffffffffff16636a5c841a886040518263ffffffff1660e01b8152600401610ed3919061114f565b61012060405180830381865afa158015610ef1573d6000803e3d6000fd5b505050506040513d601f19601f82011682018060405250810190610f1591906116b0565b602001516040518263ffffffff1660e01b8152600401610f35919061114f565b600060405180830381865afa158015610f52573d6000803e3d6000fd5b505050506040513d6000823e3d601f19601f82011682018060405250810190610f7b9190611bb3565b60200151846040518463ffffffff1660e01b8152600401610f9e93929190611822565b6020604051808303816000875af1158015610fbd573d6000803e3d6000fd5b505050506040513d601f19601f82011682018060405250810190610fe19190611475565b611020576040517f08c379a0000000000000000000000000000000000000000000000000000000008152600401611017906114ee565b60405180910390fd5b600260009054906101000a900473ffffffffffffffffffffffffffffffffffffffff1673ffffffffffffffffffffffffffffffffffffffff16636e82fc9e836040518263ffffffff1660e01b815260040161107b919061114f565b600060405180830381600087803b15801561109557600080fd5b505af11580156110a9573d6000803e3d6000fd5b505050507f21d71db5be59bb9fa133895586b7404307dd33fb93b16db09dc6f1d9d7d231b08233836040516110e093929190611859565b60405180910390a15050565b60008054906101000a900473ffffffffffffffffffffffffffffffffffffffff1681565b600160009054906101000a900473ffffffffffffffffffffffffffffffffffffffff1681565b6000819050919050565b61114981611136565b82525050565b60006020820190506111646000830184611140565b92915050565b6000604051905090565b600080fd5b600080fd5b61118781611136565b811461119257600080fd5b50565b6000813590506111a48161117e565b92915050565b6000602082840312156111c0576111bf611174565b5b60006111ce84828501611195565b91505092915050565b600073ffffffffffffffffffffffffffffffffffffffff82169050919050565b6000819050919050565b600061121c611217611212846111d7565b6111f7565b6111d7565b9050919050565b600061122e82611201565b9050919050565b600061124082611223565b9050919050565b61125081611235565b82525050565b600060208201905061126b6000830184611247565b92915050565b600061127c826111d7565b9050919050565b61128c81611271565b82525050565b60006020820190506112a76000830184611283565b92915050565b60006112b882611223565b9050919050565b6112c8816112ad565b82525050565b60006020820190506112e360008301846112bf565b92915050565b6000815190506112f88161117e565b92915050565b60006020828403121561131457611313611174565b5b6000611322848285016112e9565b91505092915050565b600082825260208201905092915050565b7f4f6e6c7920746865206f776e65722063616e2077697468647261770000000000600082015250565b6000611372601b8361132b565b915061137d8261133c565b602082019050919050565b600060208201905081810360008301526113a181611365565b9050919050565b7f496e73756666696369656e742062616c616e6365000000000000000000000000600082015250565b60006113de60148361132b565b91506113e9826113a8565b602082019050919050565b6000602082019050818103600083015261140d816113d1565b9050919050565b60006040820190506114296000830185611283565b6114366020830184611140565b9392505050565b60008115159050919050565b6114528161143d565b811461145d57600080fd5b50565b60008151905061146f81611449565b92915050565b60006020828403121561148b5761148a611174565b5b600061149984828501611460565b91505092915050565b7f5472616e73666572206661696c65640000000000000000000000000000000000600082015250565b60006114d8600f8361132b565b91506114e3826114a2565b602082019050919050565b60006020820190508181036000830152611507816114cb565b9050919050565b600080fd5b6000601f19601f8301169050919050565b7f4e487b7100000000000000000000000000000000000000000000000000000000600052604160045260246000fd5b61155c82611513565b810181811067ffffffffffffffff8211171561157b5761157a611524565b5b80604052505050565b600061158e61116a565b905061159a8282611553565b919050565b600080fd5b6115ad81611271565b81146115b857600080fd5b50565b6000815190506115ca816115a4565b92915050565b600061012082840312156115e7576115e661150e565b5b6115f2610120611584565b90506000611602848285016115bb565b6000830152506020611616848285016112e9565b602083015250604061162a848285016112e9565b604083015250606061163e848285016112e9565b6060830152506080611652848285016112e9565b60808301525060a0611666848285016112e9565b60a08301525060c061167a84828501611460565b60c08301525060e061168e84828501611460565b60e0830152506101006116a384828501611460565b6101008301525092915050565b600061012082840312156116c7576116c6611174565b5b60006116d5848285016115d0565b91505092915050565b7f596f7520617265206e6f742074686520626f6f6b696e67207573657200000000600082015250565b6000611714601c8361132b565b915061171f826116de565b602082019050919050565b6000602082019050818103600083015261174381611707565b9050919050565b7f426f6f6b696e67206973206e6f7420636f6e6669726d65640000000000000000600082015250565b600061178060188361132b565b915061178b8261174a565b602082019050919050565b600060208201905081810360008301526117af81611773565b9050919050565b7f5061796d656e742068617320616c7265616479206265656e206d616465000000600082015250565b60006117ec601d8361132b565b91506117f7826117b6565b602082019050919050565b6000602082019050818103600083015261181b816117df565b9050919050565b60006060820190506118376000830186611283565b6118446020830185611283565b6118516040830184611140565b949350505050565b600060608201905061186e6000830186611140565b61187b6020830185611283565b6118886040830184611140565b949350505050565b7f5061796d656e7420686173206e6f74206265656e206c6f636b65640000000000600082015250565b60006118c6601b8361132b565b91506118d182611890565b602082019050919050565b600060208201905081810360008301526118f5816118b9565b9050919050565b7f5061796d656e7420616c72656164792072656c65617365640000000000000000600082015250565b600061193260188361132b565b915061193d826118fc565b602082019050919050565b6000602082019050818103600083015261196181611925565b9050919050565b600080fd5b600080fd5b600067ffffffffffffffff82111561198d5761198c611524565b5b61199682611513565b9050602081019050919050565b60005b838110156119c15780820151818401526020810190506119a6565b60008484015250505050565b60006119e06119db84611972565b611584565b9050828152602081018484840111156119fc576119fb61196d565b5b611a078482856119a3565b509392505050565b600082601f830112611a2457611a23611968565b5b8151611a348482602086016119cd565b91505092915050565b60006101808284031215611a5457611a5361150e565b5b611a5f610180611584565b90506000611a6f848285016112e9565b6000830152506020611a83848285016115bb565b602083015250604082015167ffffffffffffffff811115611aa757611aa661159f565b5b611ab384828501611a0f565b6040830152506060611ac7848285016112e9565b606083015250608082015167ffffffffffffffff811115611aeb57611aea61159f565b5b611af784828501611a0f565b60808301525060a082015167ffffffffffffffff811115611b1b57611b1a61159f565b5b611b2784828501611a0f565b60a08301525060c0611b3b848285016112e9565b60c08301525060e0611b4f848285016112e9565b60e083015250610100611b6484828501611460565b61010083015250610120611b7a84828501611460565b61012083015250610140611b9084828501611460565b61014083015250610160611ba684828501611460565b6101608301525092915050565b600060208284031215611bc957611bc8611174565b5b600082015167ffffffffffffffff811115611be757611be6611179565b5b611bf384828501611a3d565b9150509291505056fea2646970667358221220870d5b43bb3e8560afcbd14fe3eb8beaafa59b10373bd26aa7a75d4baf12cc6964736f6c63430008140033",
  "devdoc": {
    "kind": "dev",
    "methods": {},
    "version": 1
  },
  "userdoc": {
    "kind": "user",
    "methods": {},
    "version": 1
  },
  "storageLayout": {
    "storage": [
      {
        "astId": 810,
        "contract": "contracts/PaymentSystem.sol:PaymentSystem",
        "label": "owner",
        "offset": 0,
        "slot": "0",
        "type": "t_address"
      },
      {
        "astId": 813,
        "contract": "contracts/PaymentSystem.sol:PaymentSystem",
        "label": "maticToken",
        "offset": 0,
        "slot": "1",
        "type": "t_contract(IERC20)77"
      },
      {
        "astId": 816,
        "contract": "contracts/PaymentSystem.sol:PaymentSystem",
        "label": "bookingService",
        "offset": 0,
        "slot": "2",
        "type": "t_contract(BookingService)804"
      }
    ],
    "types": {
      "t_address": {
        "encoding": "inplace",
        "label": "address",
        "numberOfBytes": "20"
      },
      "t_contract(BookingService)804": {
        "encoding": "inplace",
        "label": "contract BookingService",
        "numberOfBytes": "20"
      },
      "t_contract(IERC20)77": {
        "encoding": "inplace",
        "label": "contract IERC20",
        "numberOfBytes": "20"
      }
    }
  }
}